{
  "_format": "hh-sol-artifact-1",
  "contractName": "GenerativeOnchainNFT",
  "sourceName": "contracts/GenerativeNFTOnchain.sol",
  "abi": [
    {
      "inputs": [],
      "stateMutability": "nonpayable",
      "type": "constructor"
    },
    {
      "anonymous": false,
      "inputs": [
        {
          "indexed": true,
          "internalType": "address",
          "name": "owner",
          "type": "address"
        },
        {
          "indexed": true,
          "internalType": "address",
          "name": "approved",
          "type": "address"
        },
        {
          "indexed": true,
          "internalType": "uint256",
          "name": "tokenId",
          "type": "uint256"
        }
      ],
      "name": "Approval",
      "type": "event"
    },
    {
      "anonymous": false,
      "inputs": [
        {
          "indexed": true,
          "internalType": "address",
          "name": "owner",
          "type": "address"
        },
        {
          "indexed": true,
          "internalType": "address",
          "name": "operator",
          "type": "address"
        },
        {
          "indexed": false,
          "internalType": "bool",
          "name": "approved",
          "type": "bool"
        }
      ],
      "name": "ApprovalForAll",
      "type": "event"
    },
    {
      "anonymous": false,
      "inputs": [
        {
          "indexed": true,
          "internalType": "address",
          "name": "previousOwner",
          "type": "address"
        },
        {
          "indexed": true,
          "internalType": "address",
          "name": "newOwner",
          "type": "address"
        }
      ],
      "name": "OwnershipTransferred",
      "type": "event"
    },
    {
      "anonymous": false,
      "inputs": [
        {
          "indexed": true,
          "internalType": "address",
          "name": "from",
          "type": "address"
        },
        {
          "indexed": true,
          "internalType": "address",
          "name": "to",
          "type": "address"
        },
        {
          "indexed": true,
          "internalType": "uint256",
          "name": "tokenId",
          "type": "uint256"
        }
      ],
      "name": "Transfer",
      "type": "event"
    },
    {
      "inputs": [
        {
          "internalType": "address",
          "name": "to",
          "type": "address"
        },
        {
          "internalType": "uint256",
          "name": "tokenId",
          "type": "uint256"
        }
      ],
      "name": "approve",
      "outputs": [],
      "stateMutability": "nonpayable",
      "type": "function"
    },
    {
      "inputs": [
        {
          "internalType": "address",
          "name": "owner",
          "type": "address"
        }
      ],
      "name": "balanceOf",
      "outputs": [
        {
          "internalType": "uint256",
          "name": "",
          "type": "uint256"
        }
      ],
      "stateMutability": "view",
      "type": "function"
    },
    {
      "inputs": [
        {
          "internalType": "uint256",
          "name": "tokenId",
          "type": "uint256"
        }
      ],
      "name": "getApproved",
      "outputs": [
        {
          "internalType": "address",
          "name": "",
          "type": "address"
        }
      ],
      "stateMutability": "view",
      "type": "function"
    },
    {
      "inputs": [
        {
          "internalType": "address",
          "name": "owner",
          "type": "address"
        },
        {
          "internalType": "address",
          "name": "operator",
          "type": "address"
        }
      ],
      "name": "isApprovedForAll",
      "outputs": [
        {
          "internalType": "bool",
          "name": "",
          "type": "bool"
        }
      ],
      "stateMutability": "view",
      "type": "function"
    },
    {
      "inputs": [
        {
          "internalType": "address",
          "name": "recipient",
          "type": "address"
        }
      ],
      "name": "mint",
      "outputs": [
        {
          "internalType": "uint256",
          "name": "",
          "type": "uint256"
        }
      ],
      "stateMutability": "nonpayable",
      "type": "function"
    },
    {
      "inputs": [],
      "name": "name",
      "outputs": [
        {
          "internalType": "string",
          "name": "",
          "type": "string"
        }
      ],
      "stateMutability": "view",
      "type": "function"
    },
    {
      "inputs": [],
      "name": "owner",
      "outputs": [
        {
          "internalType": "address",
          "name": "",
          "type": "address"
        }
      ],
      "stateMutability": "view",
      "type": "function"
    },
    {
      "inputs": [
        {
          "internalType": "uint256",
          "name": "tokenId",
          "type": "uint256"
        }
      ],
      "name": "ownerOf",
      "outputs": [
        {
          "internalType": "address",
          "name": "",
          "type": "address"
        }
      ],
      "stateMutability": "view",
      "type": "function"
    },
    {
      "inputs": [],
      "name": "renounceOwnership",
      "outputs": [],
      "stateMutability": "nonpayable",
      "type": "function"
    },
    {
      "inputs": [
        {
          "internalType": "address",
          "name": "from",
          "type": "address"
        },
        {
          "internalType": "address",
          "name": "to",
          "type": "address"
        },
        {
          "internalType": "uint256",
          "name": "tokenId",
          "type": "uint256"
        }
      ],
      "name": "safeTransferFrom",
      "outputs": [],
      "stateMutability": "nonpayable",
      "type": "function"
    },
    {
      "inputs": [
        {
          "internalType": "address",
          "name": "from",
          "type": "address"
        },
        {
          "internalType": "address",
          "name": "to",
          "type": "address"
        },
        {
          "internalType": "uint256",
          "name": "tokenId",
          "type": "uint256"
        },
        {
          "internalType": "bytes",
          "name": "data",
          "type": "bytes"
        }
      ],
      "name": "safeTransferFrom",
      "outputs": [],
      "stateMutability": "nonpayable",
      "type": "function"
    },
    {
      "inputs": [
        {
          "internalType": "address",
          "name": "operator",
          "type": "address"
        },
        {
          "internalType": "bool",
          "name": "approved",
          "type": "bool"
        }
      ],
      "name": "setApprovalForAll",
      "outputs": [],
      "stateMutability": "nonpayable",
      "type": "function"
    },
    {
      "inputs": [
        {
          "internalType": "bytes4",
          "name": "interfaceId",
          "type": "bytes4"
        }
      ],
      "name": "supportsInterface",
      "outputs": [
        {
          "internalType": "bool",
          "name": "",
          "type": "bool"
        }
      ],
      "stateMutability": "view",
      "type": "function"
    },
    {
      "inputs": [],
      "name": "symbol",
      "outputs": [
        {
          "internalType": "string",
          "name": "",
          "type": "string"
        }
      ],
      "stateMutability": "view",
      "type": "function"
    },
    {
      "inputs": [
        {
          "internalType": "uint256",
          "name": "_tokenId",
          "type": "uint256"
        }
      ],
      "name": "tokenURI",
      "outputs": [
        {
          "internalType": "string",
          "name": "",
          "type": "string"
        }
      ],
      "stateMutability": "view",
      "type": "function"
    },
    {
      "inputs": [
        {
          "internalType": "address",
          "name": "from",
          "type": "address"
        },
        {
          "internalType": "address",
          "name": "to",
          "type": "address"
        },
        {
          "internalType": "uint256",
          "name": "tokenId",
          "type": "uint256"
        }
      ],
      "name": "transferFrom",
      "outputs": [],
      "stateMutability": "nonpayable",
      "type": "function"
    },
    {
      "inputs": [
        {
          "internalType": "address",
          "name": "newOwner",
          "type": "address"
        }
      ],
      "name": "transferOwnership",
      "outputs": [],
      "stateMutability": "nonpayable",
      "type": "function"
    }
  ],
  "bytecode": "0x60806040523480156200001157600080fd5b506040518060400160405280601681526020017f47656e65726174697665204f6e636861696e204e4654000000000000000000008152506040518060400160405280600581526020017f474f4e465400000000000000000000000000000000000000000000000000000081525081600090816200008f919062000412565b508060019081620000a1919062000412565b505050620000c4620000b8620000ca60201b60201c565b620000d260201b60201c565b620004f9565b600033905090565b6000600660009054906101000a900473ffffffffffffffffffffffffffffffffffffffff16905081600660006101000a81548173ffffffffffffffffffffffffffffffffffffffff021916908373ffffffffffffffffffffffffffffffffffffffff1602179055508173ffffffffffffffffffffffffffffffffffffffff168173ffffffffffffffffffffffffffffffffffffffff167f8be0079c531659141344cd1fd0a4f28419497f9722a3daafe3b4186f6b6457e060405160405180910390a35050565b600081519050919050565b7f4e487b7100000000000000000000000000000000000000000000000000000000600052604160045260246000fd5b7f4e487b7100000000000000000000000000000000000000000000000000000000600052602260045260246000fd5b600060028204905060018216806200021a57607f821691505b60208210810362000230576200022f620001d2565b5b50919050565b60008190508160005260206000209050919050565b60006020601f8301049050919050565b600082821b905092915050565b6000600883026200029a7fffffffffffffffffffffffffffffffffffffffffffffffffffffffffffffffff826200025b565b620002a686836200025b565b95508019841693508086168417925050509392505050565b6000819050919050565b6000819050919050565b6000620002f3620002ed620002e784620002be565b620002c8565b620002be565b9050919050565b6000819050919050565b6200030f83620002d2565b620003276200031e82620002fa565b84845462000268565b825550505050565b600090565b6200033e6200032f565b6200034b81848462000304565b505050565b5b8181101562000373576200036760008262000334565b60018101905062000351565b5050565b601f821115620003c2576200038c8162000236565b62000397846200024b565b81016020851015620003a7578190505b620003bf620003b6856200024b565b83018262000350565b50505b505050565b600082821c905092915050565b6000620003e760001984600802620003c7565b1980831691505092915050565b6000620004028383620003d4565b9150826002028217905092915050565b6200041d8262000198565b67ffffffffffffffff811115620004395762000438620001a3565b5b62000445825462000201565b6200045282828562000377565b600060209050601f8311600181146200048a576000841562000475578287015190505b620004818582620003f4565b865550620004f1565b601f1984166200049a8662000236565b60005b82811015620004c4578489015182556001820191506020850194506020810190506200049d565b86831015620004e45784890151620004e0601f891682620003d4565b8355505b6001600288020188555050505b505050505050565b612c9780620005096000396000f3fe608060405234801561001057600080fd5b506004361061010b5760003560e01c806370a08231116100a2578063a22cb46511610071578063a22cb465146102b8578063b88d4fde146102d4578063c87b56dd146102f0578063e985e9c514610320578063f2fde38b146103505761010b565b806370a0823114610242578063715018a6146102725780638da5cb5b1461027c57806395d89b411461029a5761010b565b806323b872dd116100de57806323b872dd146101aa57806342842e0e146101c65780636352211e146101e25780636a627842146102125761010b565b806301ffc9a71461011057806306fdde0314610140578063081812fc1461015e578063095ea7b31461018e575b600080fd5b61012a60048036038101906101259190611a12565b61036c565b6040516101379190611a5a565b60405180910390f35b61014861044e565b6040516101559190611b05565b60405180910390f35b61017860048036038101906101739190611b5d565b6104e0565b6040516101859190611bcb565b60405180910390f35b6101a860048036038101906101a39190611c12565b610526565b005b6101c460048036038101906101bf9190611c52565b61063d565b005b6101e060048036038101906101db9190611c52565b61069d565b005b6101fc60048036038101906101f79190611b5d565b6106bd565b6040516102099190611bcb565b60405180910390f35b61022c60048036038101906102279190611ca5565b610743565b6040516102399190611ce1565b60405180910390f35b61025c60048036038101906102579190611ca5565b610778565b6040516102699190611ce1565b60405180910390f35b61027a61082f565b005b610284610843565b6040516102919190611bcb565b60405180910390f35b6102a261086d565b6040516102af9190611b05565b60405180910390f35b6102d260048036038101906102cd9190611d28565b6108ff565b005b6102ee60048036038101906102e99190611e9d565b610915565b005b61030a60048036038101906103059190611b5d565b610977565b6040516103179190611b05565b60405180910390f35b61033a60048036038101906103359190611f20565b610a0d565b6040516103479190611a5a565b60405180910390f35b61036a60048036038101906103659190611ca5565b610aa1565b005b60007f80ac58cd000000000000000000000000000000000000000000000000000000007bffffffffffffffffffffffffffffffffffffffffffffffffffffffff1916827bffffffffffffffffffffffffffffffffffffffffffffffffffffffff1916148061043757507f5b5e139f000000000000000000000000000000000000000000000000000000007bffffffffffffffffffffffffffffffffffffffffffffffffffffffff1916827bffffffffffffffffffffffffffffffffffffffffffffffffffffffff1916145b80610447575061044682610b24565b5b9050919050565b60606000805461045d90611f8f565b80601f016020809104026020016040519081016040528092919081815260200182805461048990611f8f565b80156104d65780601f106104ab576101008083540402835291602001916104d6565b820191906000526020600020905b8154815290600101906020018083116104b957829003601f168201915b5050505050905090565b60006104eb82610b8e565b6004600083815260200190815260200160002060009054906101000a900473ffffffffffffffffffffffffffffffffffffffff169050919050565b6000610531826106bd565b90508073ffffffffffffffffffffffffffffffffffffffff168373ffffffffffffffffffffffffffffffffffffffff16036105a1576040517f08c379a000000000000000000000000000000000000000000000000000000000815260040161059890612032565b60405180910390fd5b8073ffffffffffffffffffffffffffffffffffffffff166105c0610bd9565b73ffffffffffffffffffffffffffffffffffffffff1614806105ef57506105ee816105e9610bd9565b610a0d565b5b61062e576040517f08c379a0000000000000000000000000000000000000000000000000000000008152600401610625906120c4565b60405180910390fd5b6106388383610be1565b505050565b61064e610648610bd9565b82610c9a565b61068d576040517f08c379a000000000000000000000000000000000000000000000000000000000815260040161068490612156565b60405180910390fd5b610698838383610d2f565b505050565b6106b883838360405180602001604052806000815250610915565b505050565b6000806106c983611028565b9050600073ffffffffffffffffffffffffffffffffffffffff168173ffffffffffffffffffffffffffffffffffffffff160361073a576040517f08c379a0000000000000000000000000000000000000000000000000000000008152600401610731906121c2565b60405180910390fd5b80915050919050565b600061074d611065565b600061075960076110e3565b905061076560076110f1565b61076f8382611107565b80915050919050565b60008073ffffffffffffffffffffffffffffffffffffffff168273ffffffffffffffffffffffffffffffffffffffff16036107e8576040517f08c379a00000000000000000000000000000000000000000000000000000000081526004016107df90612254565b60405180910390fd5b600360008373ffffffffffffffffffffffffffffffffffffffff1673ffffffffffffffffffffffffffffffffffffffff168152602001908152602001600020549050919050565b610837611065565b6108416000611125565b565b6000600660009054906101000a900473ffffffffffffffffffffffffffffffffffffffff16905090565b60606001805461087c90611f8f565b80601f01602080910402602001604051908101604052809291908181526020018280546108a890611f8f565b80156108f55780601f106108ca576101008083540402835291602001916108f5565b820191906000526020600020905b8154815290600101906020018083116108d857829003601f168201915b5050505050905090565b61091161090a610bd9565b83836111eb565b5050565b610926610920610bd9565b83610c9a565b610965576040517f08c379a000000000000000000000000000000000000000000000000000000000815260040161095c90612156565b60405180910390fd5b61097184848484611357565b50505050565b6060610982826113b3565b6109c1576040517f08c379a00000000000000000000000000000000000000000000000000000000081526004016109b8906122e6565b60405180910390fd5b6109e76040516020016109d39061254b565b6040516020818303038152906040526113f4565b6040516020016109f7919061261f565b6040516020818303038152906040529050919050565b6000600560008473ffffffffffffffffffffffffffffffffffffffff1673ffffffffffffffffffffffffffffffffffffffff16815260200190815260200160002060008373ffffffffffffffffffffffffffffffffffffffff1673ffffffffffffffffffffffffffffffffffffffff16815260200190815260200160002060009054906101000a900460ff16905092915050565b610aa9611065565b600073ffffffffffffffffffffffffffffffffffffffff168173ffffffffffffffffffffffffffffffffffffffff1603610b18576040517f08c379a0000000000000000000000000000000000000000000000000000000008152600401610b0f906126b3565b60405180910390fd5b610b2181611125565b50565b60007f01ffc9a7000000000000000000000000000000000000000000000000000000007bffffffffffffffffffffffffffffffffffffffffffffffffffffffff1916827bffffffffffffffffffffffffffffffffffffffffffffffffffffffff1916149050919050565b610b97816113b3565b610bd6576040517f08c379a0000000000000000000000000000000000000000000000000000000008152600401610bcd906121c2565b60405180910390fd5b50565b600033905090565b816004600083815260200190815260200160002060006101000a81548173ffffffffffffffffffffffffffffffffffffffff021916908373ffffffffffffffffffffffffffffffffffffffff160217905550808273ffffffffffffffffffffffffffffffffffffffff16610c54836106bd565b73ffffffffffffffffffffffffffffffffffffffff167f8c5be1e5ebec7d5bd14f71427d1e84f3dd0314c0f7b2291e5b200ac8c7c3b92560405160405180910390a45050565b600080610ca6836106bd565b90508073ffffffffffffffffffffffffffffffffffffffff168473ffffffffffffffffffffffffffffffffffffffff161480610ce85750610ce78185610a0d565b5b80610d2657508373ffffffffffffffffffffffffffffffffffffffff16610d0e846104e0565b73ffffffffffffffffffffffffffffffffffffffff16145b91505092915050565b8273ffffffffffffffffffffffffffffffffffffffff16610d4f826106bd565b73ffffffffffffffffffffffffffffffffffffffff1614610da5576040517f08c379a0000000000000000000000000000000000000000000000000000000008152600401610d9c90612745565b60405180910390fd5b600073ffffffffffffffffffffffffffffffffffffffff168273ffffffffffffffffffffffffffffffffffffffff1603610e14576040517f08c379a0000000000000000000000000000000000000000000000000000000008152600401610e0b906127d7565b60405180910390fd5b610e218383836001611578565b8273ffffffffffffffffffffffffffffffffffffffff16610e41826106bd565b73ffffffffffffffffffffffffffffffffffffffff1614610e97576040517f08c379a0000000000000000000000000000000000000000000000000000000008152600401610e8e90612745565b60405180910390fd5b6004600082815260200190815260200160002060006101000a81549073ffffffffffffffffffffffffffffffffffffffff02191690556001600360008573ffffffffffffffffffffffffffffffffffffffff1673ffffffffffffffffffffffffffffffffffffffff168152602001908152602001600020600082825403925050819055506001600360008473ffffffffffffffffffffffffffffffffffffffff1673ffffffffffffffffffffffffffffffffffffffff16815260200190815260200160002060008282540192505081905550816002600083815260200190815260200160002060006101000a81548173ffffffffffffffffffffffffffffffffffffffff021916908373ffffffffffffffffffffffffffffffffffffffff160217905550808273ffffffffffffffffffffffffffffffffffffffff168473ffffffffffffffffffffffffffffffffffffffff167fddf252ad1be2c89b69c2b068fc378daa952ba7f163c4a11628f55a4df523b3ef60405160405180910390a4611023838383600161157e565b505050565b60006002600083815260200190815260200160002060009054906101000a900473ffffffffffffffffffffffffffffffffffffffff169050919050565b61106d610bd9565b73ffffffffffffffffffffffffffffffffffffffff1661108b610843565b73ffffffffffffffffffffffffffffffffffffffff16146110e1576040517f08c379a00000000000000000000000000000000000000000000000000000000081526004016110d890612843565b60405180910390fd5b565b600081600001549050919050565b6001816000016000828254019250508190555050565b611121828260405180602001604052806000815250611584565b5050565b6000600660009054906101000a900473ffffffffffffffffffffffffffffffffffffffff16905081600660006101000a81548173ffffffffffffffffffffffffffffffffffffffff021916908373ffffffffffffffffffffffffffffffffffffffff1602179055508173ffffffffffffffffffffffffffffffffffffffff168173ffffffffffffffffffffffffffffffffffffffff167f8be0079c531659141344cd1fd0a4f28419497f9722a3daafe3b4186f6b6457e060405160405180910390a35050565b8173ffffffffffffffffffffffffffffffffffffffff168373ffffffffffffffffffffffffffffffffffffffff1603611259576040517f08c379a0000000000000000000000000000000000000000000000000000000008152600401611250906128af565b60405180910390fd5b80600560008573ffffffffffffffffffffffffffffffffffffffff1673ffffffffffffffffffffffffffffffffffffffff16815260200190815260200160002060008473ffffffffffffffffffffffffffffffffffffffff1673ffffffffffffffffffffffffffffffffffffffff16815260200190815260200160002060006101000a81548160ff0219169083151502179055508173ffffffffffffffffffffffffffffffffffffffff168373ffffffffffffffffffffffffffffffffffffffff167f17307eab39ab6107e8899845ad3d59bd9653f200f220920489ca2b5937696c318360405161134a9190611a5a565b60405180910390a3505050565b611362848484610d2f565b61136e848484846115df565b6113ad576040517f08c379a00000000000000000000000000000000000000000000000000000000081526004016113a490612941565b60405180910390fd5b50505050565b60008073ffffffffffffffffffffffffffffffffffffffff166113d583611028565b73ffffffffffffffffffffffffffffffffffffffff1614159050919050565b6060600082510361141657604051806020016040528060008152509050611573565b6000604051806060016040528060408152602001612c2260409139905060006003600285516114459190612990565b61144f91906129f3565b600461145b9190612a24565b9050600060208261146c9190612990565b67ffffffffffffffff81111561148557611484611d72565b5b6040519080825280601f01601f1916602001820160405280156114b75781602001600182028036833780820191505090505b509050818152600183018586518101602084015b81831015611532576003830192508251603f8160121c1685015160f81b8252600182019150603f81600c1c1685015160f81b8252600182019150603f8160061c1685015160f81b8252600182019150603f811685015160f81b8252600182019150506114cb565b60038951066001811461154c576002811461155c57611567565b613d3d60f01b6002830352611567565b603d60f81b60018303525b50505050508093505050505b919050565b50505050565b50505050565b61158e8383611766565b61159b60008484846115df565b6115da576040517f08c379a00000000000000000000000000000000000000000000000000000000081526004016115d190612941565b60405180910390fd5b505050565b60006116008473ffffffffffffffffffffffffffffffffffffffff16611983565b15611759578373ffffffffffffffffffffffffffffffffffffffff1663150b7a02611629610bd9565b8786866040518563ffffffff1660e01b815260040161164b9493929190612abb565b6020604051808303816000875af192505050801561168757506040513d601f19601f820116820180604052508101906116849190612b1c565b60015b611709573d80600081146116b7576040519150601f19603f3d011682016040523d82523d6000602084013e6116bc565b606091505b506000815103611701576040517f08c379a00000000000000000000000000000000000000000000000000000000081526004016116f890612941565b60405180910390fd5b805181602001fd5b63150b7a0260e01b7bffffffffffffffffffffffffffffffffffffffffffffffffffffffff1916817bffffffffffffffffffffffffffffffffffffffffffffffffffffffff19161491505061175e565b600190505b949350505050565b600073ffffffffffffffffffffffffffffffffffffffff168273ffffffffffffffffffffffffffffffffffffffff16036117d5576040517f08c379a00000000000000000000000000000000000000000000000000000000081526004016117cc90612b95565b60405180910390fd5b6117de816113b3565b1561181e576040517f08c379a000000000000000000000000000000000000000000000000000000000815260040161181590612c01565b60405180910390fd5b61182c600083836001611578565b611835816113b3565b15611875576040517f08c379a000000000000000000000000000000000000000000000000000000000815260040161186c90612c01565b60405180910390fd5b6001600360008473ffffffffffffffffffffffffffffffffffffffff1673ffffffffffffffffffffffffffffffffffffffff16815260200190815260200160002060008282540192505081905550816002600083815260200190815260200160002060006101000a81548173ffffffffffffffffffffffffffffffffffffffff021916908373ffffffffffffffffffffffffffffffffffffffff160217905550808273ffffffffffffffffffffffffffffffffffffffff16600073ffffffffffffffffffffffffffffffffffffffff167fddf252ad1be2c89b69c2b068fc378daa952ba7f163c4a11628f55a4df523b3ef60405160405180910390a461197f60008383600161157e565b5050565b6000808273ffffffffffffffffffffffffffffffffffffffff163b119050919050565b6000604051905090565b600080fd5b600080fd5b60007fffffffff0000000000000000000000000000000000000000000000000000000082169050919050565b6119ef816119ba565b81146119fa57600080fd5b50565b600081359050611a0c816119e6565b92915050565b600060208284031215611a2857611a276119b0565b5b6000611a36848285016119fd565b91505092915050565b60008115159050919050565b611a5481611a3f565b82525050565b6000602082019050611a6f6000830184611a4b565b92915050565b600081519050919050565b600082825260208201905092915050565b60005b83811015611aaf578082015181840152602081019050611a94565b60008484015250505050565b6000601f19601f8301169050919050565b6000611ad782611a75565b611ae18185611a80565b9350611af1818560208601611a91565b611afa81611abb565b840191505092915050565b60006020820190508181036000830152611b1f8184611acc565b905092915050565b6000819050919050565b611b3a81611b27565b8114611b4557600080fd5b50565b600081359050611b5781611b31565b92915050565b600060208284031215611b7357611b726119b0565b5b6000611b8184828501611b48565b91505092915050565b600073ffffffffffffffffffffffffffffffffffffffff82169050919050565b6000611bb582611b8a565b9050919050565b611bc581611baa565b82525050565b6000602082019050611be06000830184611bbc565b92915050565b611bef81611baa565b8114611bfa57600080fd5b50565b600081359050611c0c81611be6565b92915050565b60008060408385031215611c2957611c286119b0565b5b6000611c3785828601611bfd565b9250506020611c4885828601611b48565b9150509250929050565b600080600060608486031215611c6b57611c6a6119b0565b5b6000611c7986828701611bfd565b9350506020611c8a86828701611bfd565b9250506040611c9b86828701611b48565b9150509250925092565b600060208284031215611cbb57611cba6119b0565b5b6000611cc984828501611bfd565b91505092915050565b611cdb81611b27565b82525050565b6000602082019050611cf66000830184611cd2565b92915050565b611d0581611a3f565b8114611d1057600080fd5b50565b600081359050611d2281611cfc565b92915050565b60008060408385031215611d3f57611d3e6119b0565b5b6000611d4d85828601611bfd565b9250506020611d5e85828601611d13565b9150509250929050565b600080fd5b600080fd5b7f4e487b7100000000000000000000000000000000000000000000000000000000600052604160045260246000fd5b611daa82611abb565b810181811067ffffffffffffffff82111715611dc957611dc8611d72565b5b80604052505050565b6000611ddc6119a6565b9050611de88282611da1565b919050565b600067ffffffffffffffff821115611e0857611e07611d72565b5b611e1182611abb565b9050602081019050919050565b82818337600083830152505050565b6000611e40611e3b84611ded565b611dd2565b905082815260208101848484011115611e5c57611e5b611d6d565b5b611e67848285611e1e565b509392505050565b600082601f830112611e8457611e83611d68565b5b8135611e94848260208601611e2d565b91505092915050565b60008060008060808587031215611eb757611eb66119b0565b5b6000611ec587828801611bfd565b9450506020611ed687828801611bfd565b9350506040611ee787828801611b48565b925050606085013567ffffffffffffffff811115611f0857611f076119b5565b5b611f1487828801611e6f565b91505092959194509250565b60008060408385031215611f3757611f366119b0565b5b6000611f4585828601611bfd565b9250506020611f5685828601611bfd565b9150509250929050565b7f4e487b7100000000000000000000000000000000000000000000000000000000600052602260045260246000fd5b60006002820490506001821680611fa757607f821691505b602082108103611fba57611fb9611f60565b5b50919050565b7f4552433732313a20617070726f76616c20746f2063757272656e74206f776e6560008201527f7200000000000000000000000000000000000000000000000000000000000000602082015250565b600061201c602183611a80565b915061202782611fc0565b604082019050919050565b6000602082019050818103600083015261204b8161200f565b9050919050565b7f4552433732313a20617070726f76652063616c6c6572206973206e6f7420746f60008201527f6b656e206f776e6572206f7220617070726f76656420666f7220616c6c000000602082015250565b60006120ae603d83611a80565b91506120b982612052565b604082019050919050565b600060208201905081810360008301526120dd816120a1565b9050919050565b7f4552433732313a2063616c6c6572206973206e6f7420746f6b656e206f776e6560008201527f72206f7220617070726f76656400000000000000000000000000000000000000602082015250565b6000612140602d83611a80565b915061214b826120e4565b604082019050919050565b6000602082019050818103600083015261216f81612133565b9050919050565b7f4552433732313a20696e76616c696420746f6b656e2049440000000000000000600082015250565b60006121ac601883611a80565b91506121b782612176565b602082019050919050565b600060208201905081810360008301526121db8161219f565b9050919050565b7f4552433732313a2061646472657373207a65726f206973206e6f74206120766160008201527f6c6964206f776e65720000000000000000000000000000000000000000000000602082015250565b600061223e602983611a80565b9150612249826121e2565b604082019050919050565b6000602082019050818103600083015261226d81612231565b9050919050565b7f4552433732314d657461646174613a2055524920717565727920666f72206e6f60008201527f6e6578697374656e7420746f6b656e0000000000000000000000000000000000602082015250565b60006122d0602f83611a80565b91506122db82612274565b604082019050919050565b600060208201905081810360008301526122ff816122c3565b9050919050565b600081905092915050565b7f7b226e616d65223a220000000000000000000000000000000000000000000000600082015250565b6000612347600983612306565b915061235282612311565b600982019050919050565b7f47656e65726174697665204e4654000000000000000000000000000000000000600082015250565b6000612393600e83612306565b915061239e8261235d565b600e82019050919050565b7f222c20226465736372697074696f6e223a220000000000000000000000000000600082015250565b60006123df601283612306565b91506123ea826123a9565b601282019050919050565b7f546869732069732047656e65726174697665204e465400000000000000000000600082015250565b600061242b601683612306565b9150612436826123f5565b601682019050919050565b7f222c2022696d616765223a220000000000000000000000000000000000000000600082015250565b6000612477600c83612306565b915061248282612441565b600c82019050919050565b7f697066733a2f2f516d544b6342326d565970474b6866466f626961716650576560008201527f52586768625064346a3659395a3947377a437441642f312e706e670000000000602082015250565b60006124e9603b83612306565b91506124f48261248d565b603b82019050919050565b7f227d000000000000000000000000000000000000000000000000000000000000600082015250565b6000612535600283612306565b9150612540826124ff565b600282019050919050565b60006125568261233a565b915061256182612386565b915061256c826123d2565b91506125778261241e565b91506125828261246a565b915061258d826124dc565b915061259882612528565b9150819050919050565b7f646174613a6170706c69636174696f6e2f6a736f6e3b6261736536342c000000600082015250565b60006125d8601d83612306565b91506125e3826125a2565b601d82019050919050565b60006125f982611a75565b6126038185612306565b9350612613818560208601611a91565b80840191505092915050565b600061262a826125cb565b915061263682846125ee565b915081905092915050565b7f4f776e61626c653a206e6577206f776e657220697320746865207a65726f206160008201527f6464726573730000000000000000000000000000000000000000000000000000602082015250565b600061269d602683611a80565b91506126a882612641565b604082019050919050565b600060208201905081810360008301526126cc81612690565b9050919050565b7f4552433732313a207472616e736665722066726f6d20696e636f72726563742060008201527f6f776e6572000000000000000000000000000000000000000000000000000000602082015250565b600061272f602583611a80565b915061273a826126d3565b604082019050919050565b6000602082019050818103600083015261275e81612722565b9050919050565b7f4552433732313a207472616e7366657220746f20746865207a65726f2061646460008201527f7265737300000000000000000000000000000000000000000000000000000000602082015250565b60006127c1602483611a80565b91506127cc82612765565b604082019050919050565b600060208201905081810360008301526127f0816127b4565b9050919050565b7f4f776e61626c653a2063616c6c6572206973206e6f7420746865206f776e6572600082015250565b600061282d602083611a80565b9150612838826127f7565b602082019050919050565b6000602082019050818103600083015261285c81612820565b9050919050565b7f4552433732313a20617070726f766520746f2063616c6c657200000000000000600082015250565b6000612899601983611a80565b91506128a482612863565b602082019050919050565b600060208201905081810360008301526128c88161288c565b9050919050565b7f4552433732313a207472616e7366657220746f206e6f6e20455243373231526560008201527f63656976657220696d706c656d656e7465720000000000000000000000000000602082015250565b600061292b603283611a80565b9150612936826128cf565b604082019050919050565b6000602082019050818103600083015261295a8161291e565b9050919050565b7f4e487b7100000000000000000000000000000000000000000000000000000000600052601160045260246000fd5b600061299b82611b27565b91506129a683611b27565b92508282019050808211156129be576129bd612961565b5b92915050565b7f4e487b7100000000000000000000000000000000000000000000000000000000600052601260045260246000fd5b60006129fe82611b27565b9150612a0983611b27565b925082612a1957612a186129c4565b5b828204905092915050565b6000612a2f82611b27565b9150612a3a83611b27565b9250828202612a4881611b27565b91508282048414831517612a5f57612a5e612961565b5b5092915050565b600081519050919050565b600082825260208201905092915050565b6000612a8d82612a66565b612a978185612a71565b9350612aa7818560208601611a91565b612ab081611abb565b840191505092915050565b6000608082019050612ad06000830187611bbc565b612add6020830186611bbc565b612aea6040830185611cd2565b8181036060830152612afc8184612a82565b905095945050505050565b600081519050612b16816119e6565b92915050565b600060208284031215612b3257612b316119b0565b5b6000612b4084828501612b07565b91505092915050565b7f4552433732313a206d696e7420746f20746865207a65726f2061646472657373600082015250565b6000612b7f602083611a80565b9150612b8a82612b49565b602082019050919050565b60006020820190508181036000830152612bae81612b72565b9050919050565b7f4552433732313a20746f6b656e20616c7265616479206d696e74656400000000600082015250565b6000612beb601c83611a80565b9150612bf682612bb5565b602082019050919050565b60006020820190508181036000830152612c1a81612bde565b905091905056fe4142434445464748494a4b4c4d4e4f505152535455565758595a6162636465666768696a6b6c6d6e6f707172737475767778797a303132333435363738392b2fa26469706673582212203ce132735f7f8cc00f129625956f59ff8c3ba718e83b50e9c060777cc1f217af64736f6c63430008130033",
  "linkReferences": {},
  "deployedLinkReferences": {}
}