{
  "_format": "hh-sol-artifact-1",
  "contractName": "GenerativeNFT",
  "sourceName": "contracts/GenerativeNFT.sol",
  "abi": [
    {
      "inputs": [],
      "stateMutability": "nonpayable",
      "type": "constructor"
    },
    {
      "anonymous": false,
      "inputs": [
        {
          "indexed": true,
          "internalType": "address",
          "name": "owner",
          "type": "address"
        },
        {
          "indexed": true,
          "internalType": "address",
          "name": "approved",
          "type": "address"
        },
        {
          "indexed": true,
          "internalType": "uint256",
          "name": "tokenId",
          "type": "uint256"
        }
      ],
      "name": "Approval",
      "type": "event"
    },
    {
      "anonymous": false,
      "inputs": [
        {
          "indexed": true,
          "internalType": "address",
          "name": "owner",
          "type": "address"
        },
        {
          "indexed": true,
          "internalType": "address",
          "name": "operator",
          "type": "address"
        },
        {
          "indexed": false,
          "internalType": "bool",
          "name": "approved",
          "type": "bool"
        }
      ],
      "name": "ApprovalForAll",
      "type": "event"
    },
    {
      "anonymous": false,
      "inputs": [
        {
          "indexed": false,
          "internalType": "uint256",
          "name": "_fromTokenId",
          "type": "uint256"
        },
        {
          "indexed": false,
          "internalType": "uint256",
          "name": "_toTokenId",
          "type": "uint256"
        }
      ],
      "name": "BatchMetadataUpdate",
      "type": "event"
    },
    {
      "anonymous": false,
      "inputs": [
        {
          "indexed": false,
          "internalType": "uint256",
          "name": "_tokenId",
          "type": "uint256"
        }
      ],
      "name": "MetadataUpdate",
      "type": "event"
    },
    {
      "anonymous": false,
      "inputs": [
        {
          "indexed": true,
          "internalType": "address",
          "name": "previousOwner",
          "type": "address"
        },
        {
          "indexed": true,
          "internalType": "address",
          "name": "newOwner",
          "type": "address"
        }
      ],
      "name": "OwnershipTransferred",
      "type": "event"
    },
    {
      "anonymous": false,
      "inputs": [
        {
          "indexed": true,
          "internalType": "address",
          "name": "from",
          "type": "address"
        },
        {
          "indexed": true,
          "internalType": "address",
          "name": "to",
          "type": "address"
        },
        {
          "indexed": true,
          "internalType": "uint256",
          "name": "tokenId",
          "type": "uint256"
        }
      ],
      "name": "Transfer",
      "type": "event"
    },
    {
      "inputs": [
        {
          "internalType": "address",
          "name": "to",
          "type": "address"
        },
        {
          "internalType": "uint256",
          "name": "tokenId",
          "type": "uint256"
        }
      ],
      "name": "approve",
      "outputs": [],
      "stateMutability": "nonpayable",
      "type": "function"
    },
    {
      "inputs": [
        {
          "internalType": "address",
          "name": "owner",
          "type": "address"
        }
      ],
      "name": "balanceOf",
      "outputs": [
        {
          "internalType": "uint256",
          "name": "",
          "type": "uint256"
        }
      ],
      "stateMutability": "view",
      "type": "function"
    },
    {
      "inputs": [
        {
          "internalType": "uint256",
          "name": "tokenId",
          "type": "uint256"
        }
      ],
      "name": "getApproved",
      "outputs": [
        {
          "internalType": "address",
          "name": "",
          "type": "address"
        }
      ],
      "stateMutability": "view",
      "type": "function"
    },
    {
      "inputs": [
        {
          "internalType": "address",
          "name": "owner",
          "type": "address"
        },
        {
          "internalType": "address",
          "name": "operator",
          "type": "address"
        }
      ],
      "name": "isApprovedForAll",
      "outputs": [
        {
          "internalType": "bool",
          "name": "",
          "type": "bool"
        }
      ],
      "stateMutability": "view",
      "type": "function"
    },
    {
      "inputs": [
        {
          "internalType": "address",
          "name": "recipient",
          "type": "address"
        },
        {
          "internalType": "string",
          "name": "uri",
          "type": "string"
        }
      ],
      "name": "mint",
      "outputs": [
        {
          "internalType": "uint256",
          "name": "",
          "type": "uint256"
        }
      ],
      "stateMutability": "nonpayable",
      "type": "function"
    },
    {
      "inputs": [],
      "name": "name",
      "outputs": [
        {
          "internalType": "string",
          "name": "",
          "type": "string"
        }
      ],
      "stateMutability": "view",
      "type": "function"
    },
    {
      "inputs": [],
      "name": "owner",
      "outputs": [
        {
          "internalType": "address",
          "name": "",
          "type": "address"
        }
      ],
      "stateMutability": "view",
      "type": "function"
    },
    {
      "inputs": [
        {
          "internalType": "uint256",
          "name": "tokenId",
          "type": "uint256"
        }
      ],
      "name": "ownerOf",
      "outputs": [
        {
          "internalType": "address",
          "name": "",
          "type": "address"
        }
      ],
      "stateMutability": "view",
      "type": "function"
    },
    {
      "inputs": [],
      "name": "renounceOwnership",
      "outputs": [],
      "stateMutability": "nonpayable",
      "type": "function"
    },
    {
      "inputs": [
        {
          "internalType": "address",
          "name": "from",
          "type": "address"
        },
        {
          "internalType": "address",
          "name": "to",
          "type": "address"
        },
        {
          "internalType": "uint256",
          "name": "tokenId",
          "type": "uint256"
        }
      ],
      "name": "safeTransferFrom",
      "outputs": [],
      "stateMutability": "nonpayable",
      "type": "function"
    },
    {
      "inputs": [
        {
          "internalType": "address",
          "name": "from",
          "type": "address"
        },
        {
          "internalType": "address",
          "name": "to",
          "type": "address"
        },
        {
          "internalType": "uint256",
          "name": "tokenId",
          "type": "uint256"
        },
        {
          "internalType": "bytes",
          "name": "data",
          "type": "bytes"
        }
      ],
      "name": "safeTransferFrom",
      "outputs": [],
      "stateMutability": "nonpayable",
      "type": "function"
    },
    {
      "inputs": [
        {
          "internalType": "address",
          "name": "operator",
          "type": "address"
        },
        {
          "internalType": "bool",
          "name": "approved",
          "type": "bool"
        }
      ],
      "name": "setApprovalForAll",
      "outputs": [],
      "stateMutability": "nonpayable",
      "type": "function"
    },
    {
      "inputs": [
        {
          "internalType": "bytes4",
          "name": "interfaceId",
          "type": "bytes4"
        }
      ],
      "name": "supportsInterface",
      "outputs": [
        {
          "internalType": "bool",
          "name": "",
          "type": "bool"
        }
      ],
      "stateMutability": "view",
      "type": "function"
    },
    {
      "inputs": [],
      "name": "symbol",
      "outputs": [
        {
          "internalType": "string",
          "name": "",
          "type": "string"
        }
      ],
      "stateMutability": "view",
      "type": "function"
    },
    {
      "inputs": [
        {
          "internalType": "uint256",
          "name": "tokenId",
          "type": "uint256"
        }
      ],
      "name": "tokenURI",
      "outputs": [
        {
          "internalType": "string",
          "name": "",
          "type": "string"
        }
      ],
      "stateMutability": "view",
      "type": "function"
    },
    {
      "inputs": [
        {
          "internalType": "address",
          "name": "from",
          "type": "address"
        },
        {
          "internalType": "address",
          "name": "to",
          "type": "address"
        },
        {
          "internalType": "uint256",
          "name": "tokenId",
          "type": "uint256"
        }
      ],
      "name": "transferFrom",
      "outputs": [],
      "stateMutability": "nonpayable",
      "type": "function"
    },
    {
      "inputs": [
        {
          "internalType": "address",
          "name": "newOwner",
          "type": "address"
        }
      ],
      "name": "transferOwnership",
      "outputs": [],
      "stateMutability": "nonpayable",
      "type": "function"
    }
  ],
  "bytecode": "0x60806040523480156200001157600080fd5b506040518060400160405280600e81526020017f47656e65726174697665204e46540000000000000000000000000000000000008152506040518060400160405280600481526020017f474e46540000000000000000000000000000000000000000000000000000000081525081600090816200008f919062000412565b508060019081620000a1919062000412565b505050620000c4620000b8620000ca60201b60201c565b620000d260201b60201c565b620004f9565b600033905090565b6000600760009054906101000a900473ffffffffffffffffffffffffffffffffffffffff16905081600760006101000a81548173ffffffffffffffffffffffffffffffffffffffff021916908373ffffffffffffffffffffffffffffffffffffffff1602179055508173ffffffffffffffffffffffffffffffffffffffff168173ffffffffffffffffffffffffffffffffffffffff167f8be0079c531659141344cd1fd0a4f28419497f9722a3daafe3b4186f6b6457e060405160405180910390a35050565b600081519050919050565b7f4e487b7100000000000000000000000000000000000000000000000000000000600052604160045260246000fd5b7f4e487b7100000000000000000000000000000000000000000000000000000000600052602260045260246000fd5b600060028204905060018216806200021a57607f821691505b60208210810362000230576200022f620001d2565b5b50919050565b60008190508160005260206000209050919050565b60006020601f8301049050919050565b600082821b905092915050565b6000600883026200029a7fffffffffffffffffffffffffffffffffffffffffffffffffffffffffffffffff826200025b565b620002a686836200025b565b95508019841693508086168417925050509392505050565b6000819050919050565b6000819050919050565b6000620002f3620002ed620002e784620002be565b620002c8565b620002be565b9050919050565b6000819050919050565b6200030f83620002d2565b620003276200031e82620002fa565b84845462000268565b825550505050565b600090565b6200033e6200032f565b6200034b81848462000304565b505050565b5b8181101562000373576200036760008262000334565b60018101905062000351565b5050565b601f821115620003c2576200038c8162000236565b62000397846200024b565b81016020851015620003a7578190505b620003bf620003b6856200024b565b83018262000350565b50505b505050565b600082821c905092915050565b6000620003e760001984600802620003c7565b1980831691505092915050565b6000620004028383620003d4565b9150826002028217905092915050565b6200041d8262000198565b67ffffffffffffffff811115620004395762000438620001a3565b5b62000445825462000201565b6200045282828562000377565b600060209050601f8311600181146200048a576000841562000475578287015190505b620004818582620003f4565b865550620004f1565b601f1984166200049a8662000236565b60005b82811015620004c4578489015182556001820191506020850194506020810190506200049d565b86831015620004e45784890151620004e0601f891682620003d4565b8355505b6001600288020188555050505b505050505050565b61306d80620005096000396000f3fe608060405234801561001057600080fd5b506004361061010b5760003560e01c8063715018a6116100a2578063b88d4fde11610071578063b88d4fde146102a4578063c87b56dd146102c0578063d0def521146102f0578063e985e9c514610320578063f2fde38b146103505761010b565b8063715018a6146102425780638da5cb5b1461024c57806395d89b411461026a578063a22cb465146102885761010b565b806323b872dd116100de57806323b872dd146101aa57806342842e0e146101c65780636352211e146101e257806370a08231146102125761010b565b806301ffc9a71461011057806306fdde0314610140578063081812fc1461015e578063095ea7b31461018e575b600080fd5b61012a60048036038101906101259190611dcc565b61036c565b6040516101379190611e14565b60405180910390f35b6101486103cd565b6040516101559190611ebf565b60405180910390f35b61017860048036038101906101739190611f17565b61045f565b6040516101859190611f85565b60405180910390f35b6101a860048036038101906101a39190611fcc565b6104a5565b005b6101c460048036038101906101bf919061200c565b6105bc565b005b6101e060048036038101906101db919061200c565b61061c565b005b6101fc60048036038101906101f79190611f17565b61063c565b6040516102099190611f85565b60405180910390f35b61022c6004803603810190610227919061205f565b6106c2565b604051610239919061209b565b60405180910390f35b61024a610779565b005b61025461078d565b6040516102619190611f85565b60405180910390f35b6102726107b7565b60405161027f9190611ebf565b60405180910390f35b6102a2600480360381019061029d91906120e2565b610849565b005b6102be60048036038101906102b99190612257565b61085f565b005b6102da60048036038101906102d59190611f17565b6108c1565b6040516102e79190611ebf565b60405180910390f35b61030a6004803603810190610305919061237b565b6109d3565b604051610317919061209b565b60405180910390f35b61033a600480360381019061033591906123d7565b610a36565b6040516103479190611e14565b60405180910390f35b61036a6004803603810190610365919061205f565b610aca565b005b6000634906490660e01b7bffffffffffffffffffffffffffffffffffffffffffffffffffffffff1916827bffffffffffffffffffffffffffffffffffffffffffffffffffffffff191614806103c657506103c582610b4d565b5b9050919050565b6060600080546103dc90612446565b80601f016020809104026020016040519081016040528092919081815260200182805461040890612446565b80156104555780601f1061042a57610100808354040283529160200191610455565b820191906000526020600020905b81548152906001019060200180831161043857829003601f168201915b5050505050905090565b600061046a82610c2f565b6004600083815260200190815260200160002060009054906101000a900473ffffffffffffffffffffffffffffffffffffffff169050919050565b60006104b08261063c565b90508073ffffffffffffffffffffffffffffffffffffffff168373ffffffffffffffffffffffffffffffffffffffff1603610520576040517f08c379a0000000000000000000000000000000000000000000000000000000008152600401610517906124e9565b60405180910390fd5b8073ffffffffffffffffffffffffffffffffffffffff1661053f610c7a565b73ffffffffffffffffffffffffffffffffffffffff16148061056e575061056d81610568610c7a565b610a36565b5b6105ad576040517f08c379a00000000000000000000000000000000000000000000000000000000081526004016105a49061257b565b60405180910390fd5b6105b78383610c82565b505050565b6105cd6105c7610c7a565b82610d3b565b61060c576040517f08c379a00000000000000000000000000000000000000000000000000000000081526004016106039061260d565b60405180910390fd5b610617838383610dd0565b505050565b6106378383836040518060200160405280600081525061085f565b505050565b600080610648836110c9565b9050600073ffffffffffffffffffffffffffffffffffffffff168173ffffffffffffffffffffffffffffffffffffffff16036106b9576040517f08c379a00000000000000000000000000000000000000000000000000000000081526004016106b090612679565b60405180910390fd5b80915050919050565b60008073ffffffffffffffffffffffffffffffffffffffff168273ffffffffffffffffffffffffffffffffffffffff1603610732576040517f08c379a00000000000000000000000000000000000000000000000000000000081526004016107299061270b565b60405180910390fd5b600360008373ffffffffffffffffffffffffffffffffffffffff1673ffffffffffffffffffffffffffffffffffffffff168152602001908152602001600020549050919050565b610781611106565b61078b6000611184565b565b6000600760009054906101000a900473ffffffffffffffffffffffffffffffffffffffff16905090565b6060600180546107c690612446565b80601f01602080910402602001604051908101604052809291908181526020018280546107f290612446565b801561083f5780601f106108145761010080835404028352916020019161083f565b820191906000526020600020905b81548152906001019060200180831161082257829003601f168201915b5050505050905090565b61085b610854610c7a565b838361124a565b5050565b61087061086a610c7a565b83610d3b565b6108af576040517f08c379a00000000000000000000000000000000000000000000000000000000081526004016108a69061260d565b60405180910390fd5b6108bb848484846113b6565b50505050565b60606108cc82610c2f565b60006006600084815260200190815260200160002080546108ec90612446565b80601f016020809104026020016040519081016040528092919081815260200182805461091890612446565b80156109655780601f1061093a57610100808354040283529160200191610965565b820191906000526020600020905b81548152906001019060200180831161094857829003601f168201915b505050505090506000610976611412565b9050600081510361098b5781925050506109ce565b6000825111156109c05780826040516020016109a8929190612767565b604051602081830303815290604052925050506109ce565b6109c984611429565b925050505b919050565b60006109dd611106565b60006109e96008611491565b90506109f5600861149f565b6109ff84826114b5565b610a0981846114d3565b610a2c604051806060016040528060258152602001613013602591398233611577565b8091505092915050565b6000600560008473ffffffffffffffffffffffffffffffffffffffff1673ffffffffffffffffffffffffffffffffffffffff16815260200190815260200160002060008373ffffffffffffffffffffffffffffffffffffffff1673ffffffffffffffffffffffffffffffffffffffff16815260200190815260200160002060009054906101000a900460ff16905092915050565b610ad2611106565b600073ffffffffffffffffffffffffffffffffffffffff168173ffffffffffffffffffffffffffffffffffffffff1603610b41576040517f08c379a0000000000000000000000000000000000000000000000000000000008152600401610b38906127fd565b60405180910390fd5b610b4a81611184565b50565b60007f80ac58cd000000000000000000000000000000000000000000000000000000007bffffffffffffffffffffffffffffffffffffffffffffffffffffffff1916827bffffffffffffffffffffffffffffffffffffffffffffffffffffffff19161480610c1857507f5b5e139f000000000000000000000000000000000000000000000000000000007bffffffffffffffffffffffffffffffffffffffffffffffffffffffff1916827bffffffffffffffffffffffffffffffffffffffffffffffffffffffff1916145b80610c285750610c2782611616565b5b9050919050565b610c3881611680565b610c77576040517f08c379a0000000000000000000000000000000000000000000000000000000008152600401610c6e90612679565b60405180910390fd5b50565b600033905090565b816004600083815260200190815260200160002060006101000a81548173ffffffffffffffffffffffffffffffffffffffff021916908373ffffffffffffffffffffffffffffffffffffffff160217905550808273ffffffffffffffffffffffffffffffffffffffff16610cf58361063c565b73ffffffffffffffffffffffffffffffffffffffff167f8c5be1e5ebec7d5bd14f71427d1e84f3dd0314c0f7b2291e5b200ac8c7c3b92560405160405180910390a45050565b600080610d478361063c565b90508073ffffffffffffffffffffffffffffffffffffffff168473ffffffffffffffffffffffffffffffffffffffff161480610d895750610d888185610a36565b5b80610dc757508373ffffffffffffffffffffffffffffffffffffffff16610daf8461045f565b73ffffffffffffffffffffffffffffffffffffffff16145b91505092915050565b8273ffffffffffffffffffffffffffffffffffffffff16610df08261063c565b73ffffffffffffffffffffffffffffffffffffffff1614610e46576040517f08c379a0000000000000000000000000000000000000000000000000000000008152600401610e3d9061288f565b60405180910390fd5b600073ffffffffffffffffffffffffffffffffffffffff168273ffffffffffffffffffffffffffffffffffffffff1603610eb5576040517f08c379a0000000000000000000000000000000000000000000000000000000008152600401610eac90612921565b60405180910390fd5b610ec283838360016116c1565b8273ffffffffffffffffffffffffffffffffffffffff16610ee28261063c565b73ffffffffffffffffffffffffffffffffffffffff1614610f38576040517f08c379a0000000000000000000000000000000000000000000000000000000008152600401610f2f9061288f565b60405180910390fd5b6004600082815260200190815260200160002060006101000a81549073ffffffffffffffffffffffffffffffffffffffff02191690556001600360008573ffffffffffffffffffffffffffffffffffffffff1673ffffffffffffffffffffffffffffffffffffffff168152602001908152602001600020600082825403925050819055506001600360008473ffffffffffffffffffffffffffffffffffffffff1673ffffffffffffffffffffffffffffffffffffffff16815260200190815260200160002060008282540192505081905550816002600083815260200190815260200160002060006101000a81548173ffffffffffffffffffffffffffffffffffffffff021916908373ffffffffffffffffffffffffffffffffffffffff160217905550808273ffffffffffffffffffffffffffffffffffffffff168473ffffffffffffffffffffffffffffffffffffffff167fddf252ad1be2c89b69c2b068fc378daa952ba7f163c4a11628f55a4df523b3ef60405160405180910390a46110c483838360016116c7565b505050565b60006002600083815260200190815260200160002060009054906101000a900473ffffffffffffffffffffffffffffffffffffffff169050919050565b61110e610c7a565b73ffffffffffffffffffffffffffffffffffffffff1661112c61078d565b73ffffffffffffffffffffffffffffffffffffffff1614611182576040517f08c379a00000000000000000000000000000000000000000000000000000000081526004016111799061298d565b60405180910390fd5b565b6000600760009054906101000a900473ffffffffffffffffffffffffffffffffffffffff16905081600760006101000a81548173ffffffffffffffffffffffffffffffffffffffff021916908373ffffffffffffffffffffffffffffffffffffffff1602179055508173ffffffffffffffffffffffffffffffffffffffff168173ffffffffffffffffffffffffffffffffffffffff167f8be0079c531659141344cd1fd0a4f28419497f9722a3daafe3b4186f6b6457e060405160405180910390a35050565b8173ffffffffffffffffffffffffffffffffffffffff168373ffffffffffffffffffffffffffffffffffffffff16036112b8576040517f08c379a00000000000000000000000000000000000000000000000000000000081526004016112af906129f9565b60405180910390fd5b80600560008573ffffffffffffffffffffffffffffffffffffffff1673ffffffffffffffffffffffffffffffffffffffff16815260200190815260200160002060008473ffffffffffffffffffffffffffffffffffffffff1673ffffffffffffffffffffffffffffffffffffffff16815260200190815260200160002060006101000a81548160ff0219169083151502179055508173ffffffffffffffffffffffffffffffffffffffff168373ffffffffffffffffffffffffffffffffffffffff167f17307eab39ab6107e8899845ad3d59bd9653f200f220920489ca2b5937696c31836040516113a99190611e14565b60405180910390a3505050565b6113c1848484610dd0565b6113cd848484846116cd565b61140c576040517f08c379a000000000000000000000000000000000000000000000000000000000815260040161140390612a8b565b60405180910390fd5b50505050565b606060405180602001604052806000815250905090565b606061143482610c2f565b600061143e611412565b9050600081511161145e5760405180602001604052806000815250611489565b8061146884611854565b604051602001611479929190612767565b6040516020818303038152906040525b915050919050565b600081600001549050919050565b6001816000016000828254019250508190555050565b6114cf828260405180602001604052806000815250611922565b5050565b6114dc82611680565b61151b576040517f08c379a000000000000000000000000000000000000000000000000000000000815260040161151290612b1d565b60405180910390fd5b8060066000848152602001908152602001600020908161153b9190612ce9565b507ff8e1a15aba9398e019f0b49df1a4fde98ee17ae345cb5f6b5e2c27f5033e8ce78260405161156b919061209b565b60405180910390a15050565b61161183838360405160240161158f93929190612dbb565b6040516020818303038152906040527f1c7ec448000000000000000000000000000000000000000000000000000000007bffffffffffffffffffffffffffffffffffffffffffffffffffffffff19166020820180517bffffffffffffffffffffffffffffffffffffffffffffffffffffffff838183161783525050505061197d565b505050565b60007f01ffc9a7000000000000000000000000000000000000000000000000000000007bffffffffffffffffffffffffffffffffffffffffffffffffffffffff1916827bffffffffffffffffffffffffffffffffffffffffffffffffffffffff1916149050919050565b60008073ffffffffffffffffffffffffffffffffffffffff166116a2836110c9565b73ffffffffffffffffffffffffffffffffffffffff1614159050919050565b50505050565b50505050565b60006116ee8473ffffffffffffffffffffffffffffffffffffffff16611997565b15611847578373ffffffffffffffffffffffffffffffffffffffff1663150b7a02611717610c7a565b8786866040518563ffffffff1660e01b81526004016117399493929190612e4e565b6020604051808303816000875af192505050801561177557506040513d601f19601f820116820180604052508101906117729190612eaf565b60015b6117f7573d80600081146117a5576040519150601f19603f3d011682016040523d82523d6000602084013e6117aa565b606091505b5060008151036117ef576040517f08c379a00000000000000000000000000000000000000000000000000000000081526004016117e690612a8b565b60405180910390fd5b805181602001fd5b63150b7a0260e01b7bffffffffffffffffffffffffffffffffffffffffffffffffffffffff1916817bffffffffffffffffffffffffffffffffffffffffffffffffffffffff19161491505061184c565b600190505b949350505050565b606060006001611863846119ba565b01905060008167ffffffffffffffff8111156118825761188161212c565b5b6040519080825280601f01601f1916602001820160405280156118b45781602001600182028036833780820191505090505b509050600082602001820190505b600115611917578080600190039150507f3031323334353637383961626364656600000000000000000000000000000000600a86061a8153600a858161190b5761190a612edc565b5b049450600085036118c2575b819350505050919050565b61192c8383611b0d565b61193960008484846116cd565b611978576040517f08c379a000000000000000000000000000000000000000000000000000000000815260040161196f90612a8b565b60405180910390fd5b505050565b6119948161198c611d2a611d4b565b63ffffffff16565b50565b6000808273ffffffffffffffffffffffffffffffffffffffff163b119050919050565b600080600090507a184f03e93ff9f4daa797ed6e38ed64bf6a1f0100000000000000008310611a18577a184f03e93ff9f4daa797ed6e38ed64bf6a1f0100000000000000008381611a0e57611a0d612edc565b5b0492506040810190505b6d04ee2d6d415b85acef81000000008310611a55576d04ee2d6d415b85acef81000000008381611a4b57611a4a612edc565b5b0492506020810190505b662386f26fc100008310611a8457662386f26fc100008381611a7a57611a79612edc565b5b0492506010810190505b6305f5e1008310611aad576305f5e1008381611aa357611aa2612edc565b5b0492506008810190505b6127108310611ad2576127108381611ac857611ac7612edc565b5b0492506004810190505b60648310611af55760648381611aeb57611aea612edc565b5b0492506002810190505b600a8310611b04576001810190505b80915050919050565b600073ffffffffffffffffffffffffffffffffffffffff168273ffffffffffffffffffffffffffffffffffffffff1603611b7c576040517f08c379a0000000000000000000000000000000000000000000000000000000008152600401611b7390612f57565b60405180910390fd5b611b8581611680565b15611bc5576040517f08c379a0000000000000000000000000000000000000000000000000000000008152600401611bbc90612fc3565b60405180910390fd5b611bd36000838360016116c1565b611bdc81611680565b15611c1c576040517f08c379a0000000000000000000000000000000000000000000000000000000008152600401611c1390612fc3565b60405180910390fd5b6001600360008473ffffffffffffffffffffffffffffffffffffffff1673ffffffffffffffffffffffffffffffffffffffff16815260200190815260200160002060008282540192505081905550816002600083815260200190815260200160002060006101000a81548173ffffffffffffffffffffffffffffffffffffffff021916908373ffffffffffffffffffffffffffffffffffffffff160217905550808273ffffffffffffffffffffffffffffffffffffffff16600073ffffffffffffffffffffffffffffffffffffffff167fddf252ad1be2c89b69c2b068fc378daa952ba7f163c4a11628f55a4df523b3ef60405160405180910390a4611d266000838360016116c7565b5050565b60006a636f6e736f6c652e6c6f679050600080835160208501845afa505050565b611d56819050919050565b611d5e612fe3565b565b6000604051905090565b600080fd5b600080fd5b60007fffffffff0000000000000000000000000000000000000000000000000000000082169050919050565b611da981611d74565b8114611db457600080fd5b50565b600081359050611dc681611da0565b92915050565b600060208284031215611de257611de1611d6a565b5b6000611df084828501611db7565b91505092915050565b60008115159050919050565b611e0e81611df9565b82525050565b6000602082019050611e296000830184611e05565b92915050565b600081519050919050565b600082825260208201905092915050565b60005b83811015611e69578082015181840152602081019050611e4e565b60008484015250505050565b6000601f19601f8301169050919050565b6000611e9182611e2f565b611e9b8185611e3a565b9350611eab818560208601611e4b565b611eb481611e75565b840191505092915050565b60006020820190508181036000830152611ed98184611e86565b905092915050565b6000819050919050565b611ef481611ee1565b8114611eff57600080fd5b50565b600081359050611f1181611eeb565b92915050565b600060208284031215611f2d57611f2c611d6a565b5b6000611f3b84828501611f02565b91505092915050565b600073ffffffffffffffffffffffffffffffffffffffff82169050919050565b6000611f6f82611f44565b9050919050565b611f7f81611f64565b82525050565b6000602082019050611f9a6000830184611f76565b92915050565b611fa981611f64565b8114611fb457600080fd5b50565b600081359050611fc681611fa0565b92915050565b60008060408385031215611fe357611fe2611d6a565b5b6000611ff185828601611fb7565b925050602061200285828601611f02565b9150509250929050565b60008060006060848603121561202557612024611d6a565b5b600061203386828701611fb7565b935050602061204486828701611fb7565b925050604061205586828701611f02565b9150509250925092565b60006020828403121561207557612074611d6a565b5b600061208384828501611fb7565b91505092915050565b61209581611ee1565b82525050565b60006020820190506120b0600083018461208c565b92915050565b6120bf81611df9565b81146120ca57600080fd5b50565b6000813590506120dc816120b6565b92915050565b600080604083850312156120f9576120f8611d6a565b5b600061210785828601611fb7565b9250506020612118858286016120cd565b9150509250929050565b600080fd5b600080fd5b7f4e487b7100000000000000000000000000000000000000000000000000000000600052604160045260246000fd5b61216482611e75565b810181811067ffffffffffffffff821117156121835761218261212c565b5b80604052505050565b6000612196611d60565b90506121a2828261215b565b919050565b600067ffffffffffffffff8211156121c2576121c161212c565b5b6121cb82611e75565b9050602081019050919050565b82818337600083830152505050565b60006121fa6121f5846121a7565b61218c565b90508281526020810184848401111561221657612215612127565b5b6122218482856121d8565b509392505050565b600082601f83011261223e5761223d612122565b5b813561224e8482602086016121e7565b91505092915050565b6000806000806080858703121561227157612270611d6a565b5b600061227f87828801611fb7565b945050602061229087828801611fb7565b93505060406122a187828801611f02565b925050606085013567ffffffffffffffff8111156122c2576122c1611d6f565b5b6122ce87828801612229565b91505092959194509250565b600067ffffffffffffffff8211156122f5576122f461212c565b5b6122fe82611e75565b9050602081019050919050565b600061231e612319846122da565b61218c565b90508281526020810184848401111561233a57612339612127565b5b6123458482856121d8565b509392505050565b600082601f83011261236257612361612122565b5b813561237284826020860161230b565b91505092915050565b6000806040838503121561239257612391611d6a565b5b60006123a085828601611fb7565b925050602083013567ffffffffffffffff8111156123c1576123c0611d6f565b5b6123cd8582860161234d565b9150509250929050565b600080604083850312156123ee576123ed611d6a565b5b60006123fc85828601611fb7565b925050602061240d85828601611fb7565b9150509250929050565b7f4e487b7100000000000000000000000000000000000000000000000000000000600052602260045260246000fd5b6000600282049050600182168061245e57607f821691505b60208210810361247157612470612417565b5b50919050565b7f4552433732313a20617070726f76616c20746f2063757272656e74206f776e6560008201527f7200000000000000000000000000000000000000000000000000000000000000602082015250565b60006124d3602183611e3a565b91506124de82612477565b604082019050919050565b60006020820190508181036000830152612502816124c6565b9050919050565b7f4552433732313a20617070726f76652063616c6c6572206973206e6f7420746f60008201527f6b656e206f776e6572206f7220617070726f76656420666f7220616c6c000000602082015250565b6000612565603d83611e3a565b915061257082612509565b604082019050919050565b6000602082019050818103600083015261259481612558565b9050919050565b7f4552433732313a2063616c6c6572206973206e6f7420746f6b656e206f776e6560008201527f72206f7220617070726f76656400000000000000000000000000000000000000602082015250565b60006125f7602d83611e3a565b91506126028261259b565b604082019050919050565b60006020820190508181036000830152612626816125ea565b9050919050565b7f4552433732313a20696e76616c696420746f6b656e2049440000000000000000600082015250565b6000612663601883611e3a565b915061266e8261262d565b602082019050919050565b6000602082019050818103600083015261269281612656565b9050919050565b7f4552433732313a2061646472657373207a65726f206973206e6f74206120766160008201527f6c6964206f776e65720000000000000000000000000000000000000000000000602082015250565b60006126f5602983611e3a565b915061270082612699565b604082019050919050565b60006020820190508181036000830152612724816126e8565b9050919050565b600081905092915050565b600061274182611e2f565b61274b818561272b565b935061275b818560208601611e4b565b80840191505092915050565b60006127738285612736565b915061277f8284612736565b91508190509392505050565b7f4f776e61626c653a206e6577206f776e657220697320746865207a65726f206160008201527f6464726573730000000000000000000000000000000000000000000000000000602082015250565b60006127e7602683611e3a565b91506127f28261278b565b604082019050919050565b60006020820190508181036000830152612816816127da565b9050919050565b7f4552433732313a207472616e736665722066726f6d20696e636f72726563742060008201527f6f776e6572000000000000000000000000000000000000000000000000000000602082015250565b6000612879602583611e3a565b91506128848261281d565b604082019050919050565b600060208201905081810360008301526128a88161286c565b9050919050565b7f4552433732313a207472616e7366657220746f20746865207a65726f2061646460008201527f7265737300000000000000000000000000000000000000000000000000000000602082015250565b600061290b602483611e3a565b9150612916826128af565b604082019050919050565b6000602082019050818103600083015261293a816128fe565b9050919050565b7f4f776e61626c653a2063616c6c6572206973206e6f7420746865206f776e6572600082015250565b6000612977602083611e3a565b915061298282612941565b602082019050919050565b600060208201905081810360008301526129a68161296a565b9050919050565b7f4552433732313a20617070726f766520746f2063616c6c657200000000000000600082015250565b60006129e3601983611e3a565b91506129ee826129ad565b602082019050919050565b60006020820190508181036000830152612a12816129d6565b9050919050565b7f4552433732313a207472616e7366657220746f206e6f6e20455243373231526560008201527f63656976657220696d706c656d656e7465720000000000000000000000000000602082015250565b6000612a75603283611e3a565b9150612a8082612a19565b604082019050919050565b60006020820190508181036000830152612aa481612a68565b9050919050565b7f45524337323155524953746f726167653a2055524920736574206f66206e6f6e60008201527f6578697374656e7420746f6b656e000000000000000000000000000000000000602082015250565b6000612b07602e83611e3a565b9150612b1282612aab565b604082019050919050565b60006020820190508181036000830152612b3681612afa565b9050919050565b60008190508160005260206000209050919050565b60006020601f8301049050919050565b600082821b905092915050565b600060088302612b9f7fffffffffffffffffffffffffffffffffffffffffffffffffffffffffffffffff82612b62565b612ba98683612b62565b95508019841693508086168417925050509392505050565b6000819050919050565b6000612be6612be1612bdc84611ee1565b612bc1565b611ee1565b9050919050565b6000819050919050565b612c0083612bcb565b612c14612c0c82612bed565b848454612b6f565b825550505050565b600090565b612c29612c1c565b612c34818484612bf7565b505050565b5b81811015612c5857612c4d600082612c21565b600181019050612c3a565b5050565b601f821115612c9d57612c6e81612b3d565b612c7784612b52565b81016020851015612c86578190505b612c9a612c9285612b52565b830182612c39565b50505b505050565b600082821c905092915050565b6000612cc060001984600802612ca2565b1980831691505092915050565b6000612cd98383612caf565b9150826002028217905092915050565b612cf282611e2f565b67ffffffffffffffff811115612d0b57612d0a61212c565b5b612d158254612446565b612d20828285612c5c565b600060209050601f831160018114612d535760008415612d41578287015190505b612d4b8582612ccd565b865550612db3565b601f198416612d6186612b3d565b60005b82811015612d8957848901518255600182019150602085019450602081019050612d64565b86831015612da65784890151612da2601f891682612caf565b8355505b6001600288020188555050505b505050505050565b60006060820190508181036000830152612dd58186611e86565b9050612de4602083018561208c565b612df16040830184611f76565b949350505050565b600081519050919050565b600082825260208201905092915050565b6000612e2082612df9565b612e2a8185612e04565b9350612e3a818560208601611e4b565b612e4381611e75565b840191505092915050565b6000608082019050612e636000830187611f76565b612e706020830186611f76565b612e7d604083018561208c565b8181036060830152612e8f8184612e15565b905095945050505050565b600081519050612ea981611da0565b92915050565b600060208284031215612ec557612ec4611d6a565b5b6000612ed384828501612e9a565b91505092915050565b7f4e487b7100000000000000000000000000000000000000000000000000000000600052601260045260246000fd5b7f4552433732313a206d696e7420746f20746865207a65726f2061646472657373600082015250565b6000612f41602083611e3a565b9150612f4c82612f0b565b602082019050919050565b60006020820190508181036000830152612f7081612f34565b9050919050565b7f4552433732313a20746f6b656e20616c7265616479206d696e74656400000000600082015250565b6000612fad601c83611e3a565b9150612fb882612f77565b602082019050919050565b60006020820190508181036000830152612fdc81612fa0565b9050919050565b7f4e487b7100000000000000000000000000000000000000000000000000000000600052605160045260246000fdfe416e204e465420772f20494420257320686173206265656e206d696e74656420746f202573a2646970667358221220b18dbe33da2cbb9b49890fba661f2baedd87df1336ab18803964e0a0ef383d6b64736f6c63430008130033",
  "linkReferences": {},
  "deployedLinkReferences": {}
}